:020000040800F2
:10800000B0460020A5E10008B9C90008BBC90008B6
:10801000BFC90008C3C90008C7C9000800000000A4
:10802000000000000000000000000000CDC90008B2
:10803000CBC9000800000000CFC90008D1C9000862
:10804000D3C90008D5C90008D7C90008D9C9000894
:10805000DBC90008DDC90008DFC90008E1C9000864
:10806000E3C90008E5C90008E7C90008E9C9000834
:10807000EBC90008EDC90008EFC90008F1C9000804
:10808000F3C90008F5C90008F7C90008F9C90008D4
:10809000FBC90008FDC90008FFC9000801CA0008A3
:1080A00003CA000805CA00081FCA000821CA000840
:1080B00023CA000825CA000827CA000829CA0008E0
:1080C0002BCA00082DCA00082FCA000831CA0008B0
:1080D00033CA000899C9000835CA000837CA000821
:1080E00039CA00083BCA00083DCA00083FCA000858
:1080F00041CA00085BCA00085DCA00085FCA0008E0
:1081000061CA000863CA000865CA000867CA000897
:1081100069CA00086BCA00086DCA00086FCA000867
:1081200071CA000873CA000875CA000877CA000837
:1081300000F002F800F04AF80AA090E8000C82442F
:108140008344AAF10107DA4501D100F03FF8AFF20C
:10815000090EBAE80F0013F0010F18BFFB1A43F025
:1081600001031847447D0000647D00000A4410F8B4
:10817000014B14F00F0508BF10F8015B240908BF7C
:1081800010F8014B6D1E05D010F8013B6D1E01F873
:10819000013BF9D1641E03D0641E01F8015BFBD1E1
:1081A0009142E4D3704700000023002400250026FC
:1081B000103A28BF78C1FBD8520728BF30C148BF4A
:1081C0000B6070471FB51FBD10B510BD06F012F84B
:1081D0001146FFF7F7FF00F0FDF806F030F803B4A2
:1081E000FFF7F2FF03BC06F031F800002DE9FC4771
:1081F0000024002500260027A046A146F948016872
:10820000F948006807F0D6FBF8490860084601689D
:10821000F748006807F03CFA0746F4480168F5485B
:10822000006807F035FA8046F0480168F2480068B7
:1082300007F02EFA8146F1480468F1480568F148D4
:1082400006683B46324629462046CDE9008901F0C2
:108250008DFABDE8FC8710B5EB48006801F0F6FE2A
:10826000EA490880EA48006801F0F0FEE949088020
:10827000E948006801F0EAFEE8490880E84800683B
:1082800001F0E4FEE7490880E048008881B2E64852
:1082900005F055FDDF48008881B2E34805F04BFD4D
:1082A000DE48008881B2E04805F043FDDD480088E3
:1082B00081B2DD4805F041FD10BD2DE9F041DB48FC
:1082C0000078A0280BDD0020D949087000F00FFECF
:1082D0000020D64908700120D549087076E0D348BF
:1082E0000078A02872D1D348007801286ED10020F0
:1082F000CF490870D0480078D0490978884207DD16
:10830000CD480078CD490978401ACD49088002E06F
:108310000020CB490880CB4890F9000006F0BBFD57
:1083200004460D46C84890F9000006F0B4FD21F05F
:108330000041064622462B4606F0FEFE05D2C24804
:1083400090F90000C149088002E00020BF49088080
:10835000BC4890F9000006F09EFD04460D46BC485E
:1083600090F9000006F097FD21F0004106462246F4
:108370002B4606F0E1FE05D2B54890F90000B5495C
:10838000088002E00020B3490880AE4890F9000060
:1083900006F081FD04460D46AF4890F9000006F056
:1083A0007AFD21F00041064622462B4606F0C4FE27
:1083B00004D2A94890F90000A84908800020A749E4
:1083C00008809C4908700120994908709C480078F1
:1083D000BDE8F08103F0A8FC03F0DAFC03F017FD20
:1083E00003F06EFD01F077FC01F044F901F076F93D
:1083F00000F0CCF902F008FA02F0F3FE02F00BFFF5
:1084000001F0FEFC01F068FD54E09548006800288A
:108410004ED000209249086092480068401C914963
:10842000086091480068401C8F4908608F480068C8
:1084300030B1012813D0022822D0032836D12BE0F6
:108440008B480068401C8A49086001F0BEFF8848DC
:108450000068052802D901208449086027E001F05E
:10846000B4FFFFF72AFF834908600846006818B187
:1084700002207E49086002E003207C49086016E083
:1084800001F0A3FFFFF7B2FE03F022F8FFF7E3FECF
:108490000120764908600AE001F097FFFFF7A6FE89
:1084A00001F0EAFD01207149086000E000BF01E031
:1084B00003F03AFDA9E72DE9F04786B04FF0000838
:1084C000C146C2460025002600246B496B4800685F
:1084D00007F070FA804668496948006807F06AFA50
:1084E000814665496748006807F064FA82460021C2
:1084F000404607F02BFA06D246F004066249404691
:1085000007F058F880460021484607F01FFA06D2C7
:1085100046F002065C49484607F04CF881460021C7
:10852000504607F013FA06D246F001065649504667
:1085300007F040F88246404607F0BCF903904846F1
:1085400007F0B8F90490504607F0B4F905900024FC
:1085500011E003A830F82400C0F3072001A901F8B6
:10856000140003A810F82400012101EB440101AA22
:108570005054601CC4B2032CEBDB46F0B0073D4600
:10858000002405E001A8005D2844C5B2601CC4B207
:10859000062CF7DBEDB2E843C5B2681CC5B28021FA
:1085A0003A4805F07FFD012818D13A2000F0C8FBB9
:1085B000384600F0D7FB002405E001A9085D00F073
:1085C000D1FB601CC4B2062CF7DB284600F0CAFBC6
:1085D0002F2000F0B5FB0A2000F0B2FB06B0BDE88A
:1085E000F0870000480000204C00002050000020D0
:1085F000E0000020E4000020E8000020F00000205F
:10860000EC000020F4000020780100208C00002005
:108610007C0100208E0000208001002090000020BE
:10862000840100209200002000340140320000202C
:1086300030000020350000203400002036000020EB
:108640003C0000203A000020370000203E000020BF
:1086500038000020400000203900002042000020A7
:10866000040000201000002014000020080000205A
:10867000000000200C0000200000C8427400002010
:10868000780000207C00002000A08C4600380140CB
:1086900000B591B0554803F0A3FE554806905548E3
:1086A0000790002008900220099000200A90802066
:1086B0000B9040000C9080000D9020200E90000246
:1086C0000F900020109006A9484803F022FF0121D6
:1086D000464803F049FF4FF4004004F093FC0020AB
:1086E000019001208DF808008DF809004FF46020FA
:1086F00003900020049002208DF8140001A93C484A
:108700004C3803F082FC07230122082138484C38FA
:1087100003F013FD07230222092135484C3803F0EA
:108720000CFD012132484C3803F0A6FC01213048F1
:108730004C3803F096FC2E484C3803F0B4FC00BFD4
:108740002B484C3803F0B4FC0028F9D128484C38A9
:1087500003F0B8FC00BF26484C3803F0B8FC0028F2
:10876000F9D1012122484C3803F0BBFC11B000BD07
:1087700008B50320ADF800008DF8020000208DF848
:10878000030069461C4803F0D7FF08BD10B5FFF78A
:10879000EFFFFFF77DFF00F013FB18A000F01BFBBD
:1087A00000F033FB10BD70B5002412480088114959
:1087B0004988884205DD0F49488807F0B3F8044628
:1087C00004E00C49088807F0ADF804464FF08A41F0
:1087D000204606F05DFF05460F4907F0EBF804461A
:1087E000204607F067F80D49086070BD0800024098
:1087F0004C24014018000020000C014066696E699D
:10880000736820746F20696E6974206164632064EA
:1088100065766963652E000000404E452C000020FF
:108820002DE9FC5F4FF0000B002001900090002428
:10883000002500278046F84805F0E1FB00F0FF0B1B
:10884000BBF13A0F06D10020F4490870F4490870D2
:10885000009073E2BBF12F0F75D1F048007801282A
:1088600042DD002607E0EF48815D00980844C0B271
:108870000090701CC6B2E9480078801EB042F2DC5D
:10888000E6480078401EE74911F80090E348007878
:10889000801E11F800A0B9F13A0F04DDA9F13700EC
:1088A00000F0FF0903E0A9F1300000F0FF09BAF180
:1088B0003A0F04DDAAF1370000F0FF0A03E0AAF145
:1088C000300000F0FF0AF02000EA0A1009F00F0162
:1088D00008430190DDE900010844C0B2009000980F
:1088E00010B90120CE490870CF4800780028B0D0D8
:1088F000CB4800780028ACD0CA48047845788778FF
:1089000090F803800020C9490870C9490870522CAA
:1089100005D1432D03D1A020C64908703FE1422C68
:1089200007D1412D05D1542F03D1A120C149087091
:1089300035E1562C08D1452D06D1522F04D1A22065
:10894000BC4908702BE1E7E1432C0AD1542D08D132
:10895000522F06D1B8F14C0F03D1A320B5490870AE
:108960001DE1502C0AD1572D08D14F2F06D1B8F157
:108970004E0F03D1A420AF49087010E1502C0AD14A
:10898000572D08D14F2F06D1B8F1460F03D1A5209E
:10899000A849087003E1502C0AD1522D08D1532F59
:1089A00006D1B8F1540F03D1A620A2490870F6E011
:1089B0005A2C0AD1542D08D14F2F06D1B8F14E0FA1
:1089C00003D1A7209B490870E9E05A2C0AD1542D05
:1089D00008D14F2F06D1B8F1460F03D1A8209549F1
:1089E0000870DCE0522C07D1532D05D1542F03D150
:1089F000A92090490870D2E0502C0AD1412D08D10D
:108A00004C2F06D1B8F14C0F03D1B0208949087022
:108A1000C5E0492C0AD1412D08D14C2F06D1B8F11F
:108A20004C0F03D1B12083490870B8E0442C0AD11F
:108A3000412D08D14C2F06D1B8F14C0F03D1B220F3
:108A40007C490870ABE04D2C0AD1412D08D14C2F48
:108A500006D1B8F14C0F03D1B320764908709EE0DF
:108A6000572C0AD1522D08D1502F06D1B8F1580FEA
:108A700003D1B4206F49087091E0572C0AD1522DD0
:108A800008D1502F06D1B8F1590F03D1B52069494B
:108A9000087084E0572C0AD1522D08D1502F06D1EE
:108AA000B8F15A0F03D1B6206249087077E0572C0D
:108AB0000AD1522D08D1492F06D1B8F1580F03D150
:108AC000B7205C4908706AE0572C0AD1522D08D1B2
:108AD000492F06D1B8F1590F03D1B8205549087074
:108AE0005DE0572C0AD1522D08D1492F06D1B8F19B
:108AF0005A0F03D1B9204F49087050E0572C0AD1C2
:108B0000522D08D1442F06D1B8F1580F03D1BA2005
:108B10004849087043E0572C0AD1522D08D1442F00
:108B200006D1B8F1590F03D1BB204249087036E095
:108B3000572C0AD1522D08D1442F06D1B8F15A0F23
:108B400003D1BC203B49087029E0572C0AD1522D93
:108B500008D14D2F06D1B8F1580F03D1BD203549AA
:108B600008701CE0572C0AD1522D08D14D2F06D188
:108B7000B8F1590F03D1BE202E4908700FE0572CD1
:108B80000AD1522D08D14D2F06D1B8F15A0F03D179
:108B9000BF202849087002E00020264908701F48BD
:108BA0000078042878DD1D4800780A282DD1002699
:108BB0000DE01C49301D085C30381F4988550846B7
:108BC000805D092801DD00208855701CC6B2042E86
:108BD000EFDB194800784FF47A7148431649497819
:108BE00001EBC10202EB011100EB8100124989780F
:108BF00001EB810100EB41000F49C97808440F499E
:108C0000086001200949087046E0044800780C28F3
:108C100042D1002629E00000003801403300002046
:108C200031000020D0010020300000201C00002076
:108C3000240000203200002010020020200000202C
:108C4000F749B01C085CF74988550846805D3A280A
:108C500004DD0846805D3738885504E0F148805DC2
:108C60003038F0498855701CC6B2082EE8DB002663
:108C70000DE0012000EB4600EA49095CE94810F8E4
:108C8000160001EB0010E8498855701CC6B2042E8E
:108C9000EFDB0120E5490870E5480078A0284DD1B8
:108CA000E1480078E3490870DF48407800F07F0031
:108CB000E1490870DC48807800F07F00DF490870E7
:108CC000D948C07800F07F00DD490870D648407868
:108CD00000F0800028B1D8480078404240B2D64920
:108CE0000870D148807800F0800028B1D34800781F
:108CF000404240B2D1490870CB48C07800F08000B3
:108D0000802805D1CE480078404240B2CC49087056
:108D10000120CC49087011E0C148CB49097800F81E
:108D200001B0C94800783F2805DAC7480078401CE0
:108D3000C549087002E00020C3490870BDE8FC9FE7
:108D400010B5044642F2107003F047F82146BF48C0
:108D500005F051F900BF8021BC4805F0A3F90028B7
:108D6000F9D010BD70B5044604F00F0526090A2E8F
:108D700005DA06F13001B54805F03DF904E006F1E9
:108D80003701B24805F037F900BF8021AF4805F040
:108D900089F90028F9D00A2D05DA05F13001AB4830
:108DA00005F029F904E005F13701A84805F023F999
:108DB00000BF8021A54805F075F90028F9D070BDE5
:108DC00010B53A20FFF7BCFF4420FFF7B9FF2D2074
:108DD000FFF7B6FF10BD70B505460026002407E07A
:108DE000701CC6B2285D2E2800D103E0601CC4B2FE
:108DF000402CF5DB00BF002404E0285DFFF7A0FF56
:108E0000601CC4B2B442F8DB70BD10B52F20FFF770
:108E100097FF0D20FFF794FF10BD2DE9F843814621
:108E200000200090484606F036F821F00041074641
:108E300006F004F80446B9F1000F02DA2D20FFF71E
:108E40007FFF42F20F70844200D90446B4F57A7F66
:108E500001D3042508E0632C01D9032504E0092C83
:108E600001D9022500E00125B4F57A7F0ED34FF435
:108E70007A70B4FBF0F0C0B28DF803009DF80300E7
:108E800000EB4001C1EBC010A4EBC004632C0DD972
:108E90006420B4FBF0F0C0B28DF802009DF802002F
:108EA00000EBC00101EB0010A4EB8004092C0BD9EE
:108EB0000A20B4FBF0F0C0B28DF801009DF801006B
:108EC00000EB8000A4EB4004E0B28DF80000002627
:108ED00009E0691E891B1DF801103031C8B2FFF787
:108EE0002FFF701CC6B2AE42F3DBBDE8F88310B5AD
:108EF0004F480078A1280DD1FFF762FF54A0FFF77B
:108F00006AFFFFF750FC57480068FFF786FFFFF73E
:108F10007CFFAEE346480078A22807D1FFF750FF58
:108F200051A0FFF758FFFFF770FFA2E34048007819
:108F3000A32823D1FFF744FF4EA0FFF74CFF3D4885
:108F40000078FFF76AFF2C20FFF7FAFE3A4890F905
:108F50000000FFF762FF2C20FFF7F2FE374890F980
:108F60000000FFF75AFF2C20FFF7EAFE344890F983
:108F70000000FFF752FFFFF748FF7AE32C48007824
:108F8000A42816D1FFF71CFF41A0FFF724FFFFF72D
:108F90003CFF0020424908702649087026490870A5
:108FA000264908702649087000F0D2FE00F0E8FE5D
:108FB0005FE31F480078A52817D1FFF701FF39A00C
:108FC000FFF709FFFFF721FF012035490870002056
:108FD000184908701849087018490870184908702D
:108FE00000F066FE00F0D8FE43E311480078A628A2
:108FF00015D1FFF7E5FE30A0FFF7EDFEFFF705FF07
:1090000000203349088033490880334908803349B8
:109010000880334908803349088000246AE08AE0E8
:10902000D001002010020020250000202400002094
:1090300032000020340000203700002038000020DB
:1090400039000020350000203300002000380140A6
:10905000726561642062617420766F6C746167650B
:10906000202E00002C00002076657273696F6E2040
:1090700030332E00726561642072656D6F746520F7
:10908000636F6E74726F6C2064617461202E0000D7
:109090006D6F746F7220706F776572206F6E2E0027
:1090A000450000206D6F746F7220706F77657220BD
:1090B0006F66662E0000000072657365742050496B
:1090C000442063616C2064617461202E0000000004
:1090D000C0000020BE000020C2000020B20000201E
:1090E000B4000020B60000200020FE4941F8240012
:1090F000601CC4B2032CF7DB002405E00020FA4911
:1091000041F82400601CC4B2032CF7DB002405E006
:109110000020F64941F82400601CC4B2032CF7DBA0
:10912000002405E00020F24941F82400601CC4B28C
:10913000032CF7DB9DE2EF480078A7280AD1FFF760
:109140003FFEEDA0FFF747FEFFF75FFE0120F0496D
:1091500008708EE2E7480078A8280AD1FFF730FEB1
:10916000ECA0FFF738FEFFF750FE0020E84908703A
:109170007FE2E0480078A9280BD1FFF721FEEBA0A1
:10918000FFF729FEFFF741FE03F01DFD03F079FD17
:109190006FE2D8480078B02815D1FFF711FEE8A09B
:1091A000FFF719FE002409E0CE4951F82400FFF72B
:1091B00034FE2C20FFF7C4FD601CC4B2032CF3DB8B
:1091C000FFF723FE55E2CB480078B12815D1FFF711
:1091D000F7FDE0A0FFF7FFFD002409E0C24951F8C8
:1091E0002400FFF71AFE2C20FFF7AAFD601CC4B272
:1091F000032CF3DBFFF709FE3BE2BE480078B22800
:1092000015D1FFF7DDFDD8A0FFF7E5FD002409E04B
:10921000B64951F82400FFF700FE2C20FFF790FD1F
:10922000601CC4B2032CF3DBFFF7EFFD21E2B14871
:109230000078B32815D1FFF7C3FDD0A0FFF7CBFD11
:10924000002409E0AA4951F82400FFF7E6FD2C208C
:10925000FFF776FD601CC4B2032CF3DBFFF7D5FDEE
:1092600007E2A4480078B42816D1FFF7A9FDC8A0EA
:10927000FFF7B1FDCA480078012806D1C948006847
:10928000984908600020C6490870C6480068FFF782
:10929000C4FDFFF7BAFDECE196480078B52816D179
:1092A000FFF78EFDC0A0FFF796FDBD4800780128AE
:1092B00006D1BC4800688B4948600020B849087056
:1092C000B8480068FFF7A9FDFFF79FFDD1E1894885
:1092D0000078B62816D1FFF773FDB7A0FFF77BFD26
:1092E000AF480078012806D1AE4800687D49886003
:1092F0000020AB490870AB480068FFF78EFDFFF710
:1093000084FDB6E17B480078B72816D1FFF758FDF9
:10931000ADA0FFF760FDA2480078012806D1A14862
:1093200000687149086000209D4908709D480068E8
:10933000FFF773FDFFF769FD9BE16E480078B828E1
:1093400016D1FFF73DFDA4A0FFF745FD9448007836
:10935000012806D19348006863494860002090497D
:10936000087090480068FFF758FDFFF74EFD80E158
:1093700060480078B92816D1FFF722FD9AA0FFF7C0
:109380002AFD87480078012806D18648006856499A
:10939000886000208249087082480068FFF73DFD20
:1093A000FFF733FD65E153480078BA2816D1FFF77F
:1093B00007FD91A0FFF70FFD79480078012806D13D
:1093C0007848006849490860002075490870754868
:1093D0000068FFF722FDFFF718FD4AE145480078D5
:1093E000BB2816D1FFF7ECFC87A0FFF7F4FC6C4814
:1093F0000078012806D16B4800683C49486000208D
:109400006749087067480068FFF707FDFFF7FDFC34
:109410002FE138480078BC2816D1FFF7D1FC7EA098
:10942000FFF7D9FC5E480078012806D15D48006846
:109430002E49886000205A4908705A480068FFF792
:10944000ECFCFFF7E2FC14E12A480078BD2816D1B5
:10945000FFF7B6FC74A0FFF7BEFC51480078012866
:1094600006D1504800682249086000204C49087025
:109470004C480068FFF7D1FCFFF7C7FCF9E01D4836
:109480000078BE2816D1FFF79BFC6BA0FFF7A3FC6A
:1094900043480078012806D14248006814494860D2
:1094A00000203F4908703F480068FFF7B6FCFFF70F
:1094B000ACFCDEE00F480078BF2811D1FFF780FC3C
:1094C00061A0FFF788FC36480078012806D13548AE
:1094D0000068074988600020314908703148BBE0C6
:1094E000C0E00000A0010020AC010020B801002075
:1094F000C401002032000020626567696E20746F2D
:10950000206F757470757420616E676C65202E0015
:109510004400002073746F7020746F206F75747036
:10952000757420616E676C65202E0000726573652E
:1095300074207468652073797374656D202E000043
:109540007265616420416C6C2050206461746120FC
:109550002E0000007265616420416C6C204920641B
:10956000617461202E0000007265616420416C6CA2
:1095700020442064617461202E00000072656164E3
:1095800020416C6C204D2064617461202E0000002D
:1095900077726974652050582064617461202E00D0
:1095A0001C0000202000002077726974652050594B
:1095B0002064617461202E00777269746520505AAE
:1095C0002064617461202E007772697465204958A7
:1095D0002064617461202E00777269746520495996
:1095E0002064617461202E00777269746520495A85
:1095F0002064617461202E0077726974652044587C
:109600002064617461202E0077726974652044596A
:109610002064617461202E00777269746520445A59
:109620002064617461202E007772697465204D5842
:109630002064617461202E007772697465204D5931
:109640002064617461202E007772697465204D5A20
:109650002064617461202E000068FFF7DEFBFFF7D5
:10966000D4FB06E0FFF7ACFB30A0FFF7B4FBFFF73D
:10967000CCFB10BD08B50121042003F05FFD0121E2
:10968000880303F05BFD4FF40070ADF80000032089
:109690008DF8020018208DF803006946284803F071
:1096A0004BF84FF48060ADF8000004208DF8030003
:1096B0006946234803F040F808BD08B525208DF819
:1096C000000001208DF8010000208DF8020001202B
:1096D0008DF80300684603F01CFA08BD1FB54FF46F
:1096E000E13000900020ADF80400ADF80600ADF8C0
:1096F0000800ADF80C000C20ADF80A0069461148CE
:1097000004F0A3FBFFF7D9FF012240F225510D48D9
:1097100004F015FC01210B4804F005FCFFF750FB99
:1097200009A0FFF758FBFFF770FB1FBD756E6B6E4E
:109730006F776E20636F6D6D616E642E00000000A8
:10974000000801400038014066696E697368207442
:109750006F20696E697420626C7565746F6F7468D0
:10976000206465766963652E000000000FB59DB02A
:10977000FE480168006806F01DF91390FC48016876
:10978000FA48006806F016F91290FA480168F7489E
:10979000006806F00FF91190F5480168006806F0BE
:1097A00009F91090F4480168F148006806F002F9E0
:1097B0000F90F0480168006806F0FCF80E90EE4843
:1097C0000168EC48006806F0F5F80D90EA48016879
:1097D000006806F0EFF80C90E8480168239806F05E
:1097E000E9F814901F99084606F0E4F806901E99CF
:1097F000084606F0DFF804901D99084606F0DAF8EE
:109800000390049905F0D6FE0590069905F0D2FE66
:10981000079005F0A3FECDE9080105F0A3F8CDE916
:109820000A0105F0C5F81B9000211B9805F0F2FF16
:1098300002D1002021B000BD1B991D9805F028FF22
:109840001D901B991E9805F023FF1E901B991F98D1
:1098500005F01EFF1F9011990F9806F0B3F94FF015
:1098600080410B9006F0A6F81A900D99129805F019
:10987000A1FE4FF080410B9006F09CF819901099D2
:10988000139806F09FF90A900E9906F09BF90B9039
:109890000C9905F08FFE189019991F9806F08AF818
:1098A0000B9018991E9806F085F80A900B9906F00F
:1098B00089F9179018991D9806F07CF80B901A9961
:1098C0001F9806F077F80A900B9906F07BF916902E
:1098D0001A991E9806F06EF80B9019991D9806F0CB
:1098E00069F80A900B9906F06DF91590A448016883
:1098F000179806F05FF80B90A24801680B9805F0E6
:1099000059FEA04908609E480168169806F052F872
:109910000B909D4801680B9805F04CFE9A49086031
:1099200097480168159806F045F80B90974801682C
:109930000B9805F03FFE9549086095481799006817
:1099400006F038F80A90209905F034FE0B908D4807
:1099500001680B9805F02EFE20908D48169900683E
:1099600006F028F80A90229905F024FE0B9086480C
:1099700001680B9805F01EFE229085481599006835
:1099800006F018F80A90239905F014FE0B907F4812
:1099900001680B9805F00EFE239077482399006824
:1099A00006F008F8099073482299006806F002F85A
:1099B00007906F48006880F000400590209905F0FE
:1099C000F9FF0690079906F0FDF80890099906F04E
:1099D000F9F80A90694801680A9805F0EBFF0B90C6
:1099E000624801680B9805F0E5FD6049086062482F
:1099F0002299006805F0DEFF09905E48239900680F
:109A000005F0D8FF079059482099006805F0D2FF6B
:109A10000690079905F0CEFD0890099906F0D2F856
:109A20000A90564801680A9805F0C4FF0B90504808
:109A300001680B9805F0BEFD4D4908604E4820991D
:109A4000006805F0B7FF099049482399006805F0C0
:109A5000B1FF079045482299006805F0ABFF0690DA
:109A6000079906F0AFF80890099905F0A3FD0A9050
:109A7000424801680A9805F09DFF0B903D48016837
:109A80000B9805F097FD3B4908603A48209900681B
:109A900005F090FF099036482299006805F08AFF8A
:109AA000079032482399006805F084FF06900799D3
:109AB00005F080FD0890099906F084F80A902F4877
:109AC00001680A9805F076FF0B902B4801680B9807
:109AD00005F070FD2849086008460168006805F037
:109AE00069FF069023480168006805F063FF049051
:109AF0001F480168006805F05DFF02901B4801687F
:109B0000006805F057FF0190029905F053FD03909E
:109B1000049905F04FFD0590069905F04BFD07905F
:109B200005F01CFDCDE9080104F01CFFCDE90A0198
:109B300004F03EFF1B9000211B9805F06BFE01D145
:109B4000002077E609481B99006805F0A1FD074948
:109B5000086007481B99006805F09AFD04490860F1
:109B600004481B99006805F093FD13E0580000209D
:109B70005C000020600000206400002088000020BD
:109B800084000020680000206C000020700000208D
:109B9000800000203F4908603F481B99006805F09D
:109BA00077FD3D4908604FF08040119905F002FFB4
:109BB00004904FF040400F9905F0FCFE039004998B
:109BC00005F0F8FC059005F0C9FCCDE9060104F0AC
:109BD000C1FB4FF0C042314BCDE9080105F0AEF9B1
:109BE000CDE90A0104F0E4FE2D4908604FF0804001
:109BF0000E9905F0DFFE01904FF04040109905F0FE
:109C0000D9FE0090019905F0DDFF4FF07E510290E2
:109C100005F0D0FC039005F0A1FCCDE906014FF062
:109C20008040129905F0C6FE02904FF080400D99D9
:109C300005F0C0FE0190029905F0BCFC039005F010
:109C40008DFCCDE90401DDE9062304F0CBFD4FF0E6
:109C5000C042124BCDE9080105F070F9CDE90A01C7
:109C600004F0A6FE0F4908604FF08040149905F0FB
:109C7000A1FE0A900C4801680A9805F009FD0B90B6
:109C80000A4801680B9805F095FC08490860012016
:109C9000D0E50000600000206400002066A64C4073
:109CA0007800002074000020480000207C00002084
:109CB00010B54FF40041304802F0EDFD40212F482F
:109CC00002F0E9FD20212D4802F0E5FD80212B481E
:109CD00002F0E1FD10BD08B501210C2003F02EFAC1
:109CE0004FF40040ADF8000002208DF80200102073
:109CF0008DF803006946204802F01EFD4020ADF8B3
:109D0000000002208DF8020010208DF80300694643
:109D10001A4802F011FD2020ADF8000002208DF855
:109D2000020010208DF803006946144802F004FD7B
:109D30008020ADF8000002208DF8020010208DF880
:109D4000030069460D4802F0F7FCFFF7B1FF08BDBC
:109D500010B54FF40041084802F09BFD4021074830
:109D600002F097FD2021054802F093FD8021034871
:109D700002F08FFD10BD000000080140000C014002
:109D800010B54FF40071D44802F083FD4FF4004148
:109D9000D24802F07EFD10BD10B54FF40071CE48E0
:109DA00002F079FD4FF40041CC4802F074FD10BD83
:109DB00010B54FF40071C94802F06BFD8021C7480F
:109DC00002F067FD4021C54802F063FD4FF4807149
:109DD000C24802F05EFD10BD10B54FF40071BF48DF
:109DE00002F059FD8021BD4802F055FD4021BB48DD
:109DF00002F051FD4FF48071B84802F04CFD10BDE7
:109E000008B50121182003F099F94FF40070ADF85E
:109E1000000003208DF8020010208DF80300694631
:109E2000AE4802F089FC8020ADF8000003208DF8D8
:109E3000020010208DF803006946A84802F07CFC5F
:109E40004020ADF8000003208DF8020010208DF8AE
:109E500003006946A14802F06FFC4FF48070ADF832
:109E6000000003208DF8020010208DF803006946E1
:109E70009A4802F061FCFFF7AFFF4FF40070ADF8B5
:109E8000000003208DF8020010208DF803006946C1
:109E9000914802F051FC4FF40040ADF8000003205F
:109EA0008DF8020010208DF8030069468B4802F0FF
:109EB00043FCFFF771FF08BD08B52C208DF80000AA
:109EC00000208DF801008DF8020001208DF80300BC
:109ED000684602F01EFE08BD00B589B001214803A6
:109EE00003F02CF94FF40070ADF8200003208DF83A
:109EF000220018208DF8230008A9784802F01CFCE5
:109F00008020ADF8200003208DF8220018208DF865
:109F1000230008A9714802F00FFC4020ADF8200092
:109F200003208DF8220018208DF8230008A96B4823
:109F300002F002FC4FF48070ADF8200003208DF891
:109F4000220018208DF8230008A9644802F0F4FBD1
:109F50000020ADF81A000120ADF814000020ADF883
:109F600016005F48008880B2ADF8180005A95D486A
:109F700003F0B7F96020ADF804000120ADF8060049
:109F80005948008880B2ADF80A000020ADF80C00F6
:109F9000ADF80E004FF48070ADF810000020ADF861
:109FA000120001A94F4803F0B5F90120ADF80600F1
:109FB0004E48008880B2ADF80A0001A9494803F074
:109FC000E0F90120ADF806004948008880B2ADF8FC
:109FD0000A0001A9434803F01EFA0120ADF806006B
:109FE0004448008880B2ADF80A0001A93D4803F05A
:109FF0005AFAFFF761FF01213A4803F0F8FB01210B
:10A00000384803F000FCFEF7DBFE3BA0FEF7E3FE62
:10A01000FEF7FBFE09B000BD10B53648008881B2DE
:10A02000304803F08CFE3148008881B22D4803F09F
:10A0300082FE2D48008881B22A4803F07AFE2C481F
:10A04000008881B2274803F078FE10BD70B5054640
:10A050003149284605F07AFD01D22F4C07E02F49FF
:10A06000284605F073FC01D22C4C00E02C4620461B
:10A0700005F004FC00B270BD10B50020284908604E
:10A08000284908602849086028490860284908606C
:10A09000284908602849086028490860284908605C
:10A0A000284908600F2013490860104908600E49CC
:10A0B00008600F49086005210A4803F040FE0521A9
:10A0C000084803F038FE0521064803F032FE05215A
:10A0D000044803F032FE10BD000C014000100140A6
:10A0E0009400002000340140A4000020A0000020C3
:10A0F000A80000209C00002066696E6973682074C7
:10A100006F20696E6974206D6F746F72206465765C
:10A110006963652E0000000000C0794400007041B2
:10A12000780100207C0100208001002084010020B3
:10A13000480100204C010020500100205401002063
:10A14000580100205C01002000BF411E0800FCD126
:10A15000704710B54FF40061FE4802F09CFB0A20E6
:10A16000FFF7F2FF4FF48061FA4802F092FB0A20F9
:10A17000FFF7EAFF4FF40061F64802F08AFB0A207D
:10A18000FFF7E2FF10BD10B54FF40061F14802F097
:10A1900080FB0A20FFF7D8FF4FF48061ED4802F002
:10A1A00078FB0A20FFF7D0FF4FF48061E94802F006
:10A1B00072FB0A20FFF7C8FF10BD10B54FF4006115
:10A1C000E44802F068FB0A20FFF7BEFF4FF480610D
:10A1D000E04802F05EFB0A20FFF7B6FF4FF4806113
:10A1E000DC4802F058FB0A20FFF7AEFF10BD2DE956
:10A1F000F041064600272FE04FF40061D54802F0F9
:10A2000048FB4FF48061D34802F045FB0024002551
:10A210001BE04FF48061CF4802F03BFB0A20FFF7C0
:10A2200093FF6006040E4FF40061CA4802F017FB6A
:10A2300008B144F001044FF48061C64802F02BFBE2
:10A240000A20FFF781FF681CC5B2082DE1DBF45539
:10A25000FFF7B3FF781CC7B20D2FCDDB4FF40061C1
:10A26000BC4802F016FB4FF48061BA4802F013FBC1
:10A27000002400251BE04FF48061B64802F009FB82
:10A280000A20FFF761FF6006040E4FF40061B14839
:10A2900002F0E5FA08B144F001044FF48061AD48E2
:10A2A00002F0F9FA0A20FFF74FFF681CC5B2082D2B
:10A2B000E1DB7473FFF767FFBDE8F08170B504461A
:10A2C0004FF48061A34802F0E6FA002524E004F090
:10A2D000800028B14FF400619E4802F0DAFA04E0F1
:10A2E0004FF400619B4802F0D6FA6006040E0A2083
:10A2F000FFF72AFF4FF48061964802F0CAFA0A205D
:10A30000FFF722FF4FF48061924802F0C4FA0A205E
:10A31000FFF71AFF681CC5B2082DD8DB4FF40061A7
:10A320008C4802F0B6FA0A20FFF70EFF4FF4806166
:10A33000884802F0AEFA0A20FFF706FF4FF40061EA
:10A34000844802F08CFA30B14FF48061814802F009
:10A35000A2FA002070BD4FF480617E4802F09BFAA3
:10A360000120F7E710B54FF400617A4802F091FA46
:10A370000A20FFF7E9FE4FF48061764802F089FA7F
:10A380000A20FFF7E1FE4FF40061724802F067FA1D
:10A3900008B9012010BD4FF400616E4802F07BFA4D
:10A3A0000A20FFF7D1FE4FF480616A4802F073FA89
:10A3B0000A20FFF7C9FE4FF40061664802F04FFA29
:10A3C00008B10220E6E70020E4E7F0B589B00821F3
:10A3D000604802F044FA002850D1FFF7C3FFD020B4
:10A3E000FFF76CFF3B20FFF769FFFFF7BBFFD120B2
:10A3F000FFF764FF05A8FFF7FAFEFFF7AAFE0024A7
:10A400000EE0012000EB440005A9085C11F81410CF
:10A4100040EA012000B201A921F81400601CC4B276
:10A42000072CEEDBBDF804004B490988401A00B246
:10A430004A490880BDF8060049490988401A00B217
:10A4400048490880BDF8080047490880BDF80C005D
:10A4500046490988401A00B245490880BDF80E00F7
:10A4600044490988401A00B243490880BDF81000E9
:10A4700042490988401A00B2414908803948B0F978
:10A48000000005F037FA07463E480168384605F0F7
:10A4900091FA05463C4801683C48006805F08AFA94
:10A4A0000646294605F086F8374908602B48B0F97A
:10A4B000000005F01FFA074632480168384605F0EB
:10A4C00079FA0546324801683048006805F072FAAA
:10A4D0000646294605F06EF82D4908602A480168AD
:10A4E0002C48006805F066F805464FF0804105F0FD
:10A4F000CFF828490860264801682748006805F019
:10A5000059F805464FF0804105F0C2F8224908602D
:10A510001548B0F9000005F0EDF906461F4801683E
:10A52000304605F047F805464FF0804105F0B0F899
:10A530001A4908600E48B0F9000005F0DBF906463C
:10A5400017480168304605F035F805464FF0804160
:10A5500028E00000000C0140C0000020BA000020EC
:10A56000BE000020B8000020BC000020B200002087
:10A57000AC000020B4000020AE000020B600002097
:10A58000B0000020D0000020D8000020CC00002027
:10A59000DC000020EC000020F0000020F40000208F
:10A5A000E000002005F074F8B5490860B548B0F93E
:10A5B000000005F09FF90646B3480168304604F0F4
:10A5C000F9FF05464FF0804105F062F8AE4908609A
:10A5D000AE48B0F9000005F08DF90646AC480168B8
:10A5E000304604F0E7FF05464FF0804105F050F893
:10A5F000A749086009B0F0BD08B54FF44060ADF858
:10A60000000002208DF8020014208DF80300694636
:10A61000A04802F091F80820ADF8000002208DF863
:10A62000020004208DF8030069469A4802F084F87D
:10A630004FF48061974802F02CF94FF4006195487F
:10A6400002F027F99448FFF77FFD08BD70B54FF47D
:10A650000061904802F01DF94FF480618D4802F0CE
:10A660001AF9002400251BE04FF48061894802F0AC
:10A6700010F90A20FFF768FD6006040E4FF4006130
:10A68000844802F0ECF808B144F001044FF4806112
:10A69000804802F000F90A20FFF756FD681CC5B299
:10A6A000082DE1DBFFF76FFD204670BD70B54FF45C
:10A6B0000061784802F0EDF84FF48061754802F0CF
:10A6C000EAF8002400251BE04FF48061714802F095
:10A6D000E0F80A20FFF738FD6006040E4FF4006131
:10A6E0006C4802F0BCF808B144F001044FF48061FA
:10A6F000684802F0D0F80A20FFF726FD681CC5B2B2
:10A70000082DE1DBFFF759FD204670BD10B5FFF7BE
:10A7100029FED020FFF7D2FD7520FFF7CFFDFFF710
:10A7200021FED120FFF7CAFDFFF790FF0446FFF797
:10A7300010FD204610BD10B5FFF714FED020FFF726
:10A74000BDFD3820FFF7BAFD0120FFF7B7FDFFF789
:10A7500000FD10BD10B5FFF705FED020FFF7AEFDE0
:10A760003720FFF7ABFDB220FFF7A8FDFFF7F1FCA4
:10A7700010BD10B5FFF7F6FDD020FFF79FFD6A2052
:10A78000FFF79CFD0020FFF799FDFFF7E2FC10BDED
:10A7900010B5FFF7E7FDD020FFF790FD1C20FFF775
:10A7A0008DFD1820FFF78AFDFFF7D3FC10BD10B513
:10A7B000FFF7D8FDD020FFF781FD1B20FFF77EFDBE
:10A7C0001820FFF77BFDFFF7C4FC10BD10B5FFF7A5
:10A7D000C9FDD020FFF772FD6B20FFF76FFD012050
:10A7E000FFF76CFDFFF7B5FC10BD10B5FFF7BAFD24
:10A7F000D020FFF763FD6B20FFF760FD0120FFF71E
:10A800005DFDFFF7A6FC10BD10B5FFF7F5FEFFF7E5
:10A81000ECFFFFF7DBFFFFF7CAFFFFF7B9FFFFF71A
:10A82000A8FFFFF797FFFFF786FFFFF76FFF0446CC
:10A83000FEF7C6FA19A0FEF7CEFA2046FEF7EDFAAB
:10A84000FEF7E3FA42F2107001F0C7FA10BD70B5DE
:10A8500004460D46FFF786FD2046FFF72FFD2846EC
:10A86000FFF72CFDFFF77EFD611CC8B2FFF726FD48
:10A87000FFF7ECFE0646FFF76CFC304670BD0000AB
:10A88000E0000020AE000020E4000020B000002026
:10A89000E8000020000C0140A08601006D707536B4
:10A8A0003035302063686970206964202E00000014
:10A8B00070B5ADF5B56D0546002405E0002001A991
:10A8C00041F82400601CC4B2072CF7DB002633E0FB
:10A8D00000BF0821FE4801F0C2FF0028F9D1FFF7B0
:10A8E00041FDD020FFF7EAFC3B20FFF7E7FCFFF734
:10A8F00039FDD120FFF7E2FC0DF5B360FFF777FCDF
:10A90000FFF727FC002413E0012000EB44000DF5C5
:10A91000B361085C11F8141040EA012000B2C6EBE4
:10A92000C60108AA02EB410121F81400601CC4B260
:10A93000072CE9DB701CC6B2642EC9DB002415E0CD
:10A9400000260FE0C6EBC60008A901EB400030F975
:10A95000140001A951F82410084401A941F8240069
:10A96000701CC6B2642EEDDB601CC4B2072CE7DBA2
:10A970006421059890FBF1F02860069890FBF1F0B7
:10A980006860079890FBF1F0A860019890FBF1F0E7
:10A99000E860029890FBF1F02861039890FBF1F0D9
:10A9A00068610020A861E86128620DF5B56D70BD91
:10A9B0002DE9F04194B0C748006800287ED10024FA
:10A9C0001CE0C54800EB84073E68F0B20DF8240097
:10A9D000C6F30720012101EB84010DF80100C6F345
:10A9E0000740022101EB84010DF80100300E032124
:10A9F00001EB84010DF80100601CC4B2072CE0DB00
:10AA0000B5B24FEA164844F6434080457ED1B1487E
:10AA10000068401CAF490860002438E01DF81400AD
:10AA200000094FF47A71484308A941F8240008A8A6
:10AA300050F824001DF8141001F00F0101EBC102C1
:10AA400002EB011100EB810008A941F8240008A8DD
:10AA500050F82400012101EB44011DF801100909FF
:10AA600001EB810100EB410008A941F8240008A88E
:10AA700050F82400012101EB44011DF8011001F000
:10AA80000F01084408A941F82400601CC4B20C2C32
:10AA9000C4DB05F0F000D02859D105F4807010B95E
:10AAA00008984042089005F4007010B90998404297
:10AAB000099005F4806020B90A9800E03AE040422D
:10AAC0000A9005F4006010B90B9840420B9005F411
:10AAD000805010B90C9840420C9005F4005010B909
:10AAE0000D9840420D9005F4804010B90E984042F8
:10AAF0000E9005F4004010B90F9840420F9005F0F9
:10AB0000010010B910984042109000E01FE005F0DD
:10AB1000020010B911984042119005F0040010B9DC
:10AB200012984042129005F0080080B913984042F4
:10AB300013900CE0FEF744F968A0FEF74CF9FEF71D
:10AB400064F96E4801F049F908A8FFF7B1FE0898CA
:10AB500000B26B490880099800B26A4908800A98D7
:10AB600000B2694908800B9800B2684908800C98C7
:10AB700000B2674908800D9800B2664908800E98B7
:10AB800000B2654908800F9800B2644908801098A7
:10AB900000B263490880FEF713F962A0FEF71BF9C3
:10ABA0005748B0F90000FEF738F9FEF72EF9534880
:10ABB00001F013F9FEF704F95FA0FEF70CF9514814
:10ABC000B0F90000FEF729F9FEF71FF94B4801F034
:10ABD00004F9FEF7F5F85DA0FEF7FDF84A48B0F974
:10ABE0000000FEF71AF9FEF710F9444801F0F5F8F5
:10ABF000FEF7E6F859A0FEF7EEF84448B0F9000079
:10AC0000FEF70BF9FEF701F93C4801F0E6F8FEF714
:10AC1000D7F856A0FEF7DFF83D48B0F90000FEF780
:10AC2000FCF8FEF7F2F8354801F0D7F8FEF7C8F85F
:10AC300053A0FEF7D0F83748B0F90000FEF7EDF862
:10AC4000FEF7E3F82D4801F0C8F8FEF7B9F850A078
:10AC5000FEF7C1F8FEF7D9F8284801F0BEF814B0A5
:10AC6000BDE8F0812DE9F04395B01A48006800284E
:10AC70002CD100241BE018481C3800EB84073E68E8
:10AC800001A901F82460C6F30720012101EB84012A
:10AC900001AA5054C6F30740022101EB840150542D
:10ACA000300E032101EB84015054601CC4B2072C08
:10ACB000E1DBB5B24FEA164844F25040804506D178
:10ACC00004480068401C0349086071E0FBE0F9E0BB
:10ACD000000C0140F800002038F40308737461721E
:10ACE0007420746F20646F2073656C662063616CE0
:10ACF0006962726174696F6E2E000000E093040057
:10AD0000B2000020B4000020B6000020C0000020E7
:10AD1000BE000020C2000020C4000020C6000020A9
:10AD2000C80000206779726F2070697463682063BF
:10AD3000616C3D202E0000006779726F20726F6C8D
:10AD40006C2063616C3D202E000000006779726FFB
:10AD5000207961772063616C3D202E006163632060
:10AD6000726F6C6C2063616C3D202E006163632008
:10AD700070697463682063616C3D202E00000000E0
:10AD8000616363207961772063616C3D202E000050
:10AD900066696E697368207468652073656C6620E7
:10ADA00063616C6962726174696F6E2E00000000ED
:10ADB000002439E001A810F8140000094FF47A715A
:10ADC000484309A941F8240009A850F8240001A922
:10ADD00011F8141001F00F0101EBC10202EB011197
:10ADE00000EB810009A941F8240009A850F82400CB
:10ADF000012101EB440101AA515C090901EB810128
:10AE000000EB410009A941F8240009A850F82400EA
:10AE1000012101EB4401515C01F00F01084409A933
:10AE200041F82400601CC4B20C2CC3DB05F0F00018
:10AE3000D0285BD105F4807010B909984042099080
:10AE400005F4007010B90A9840420A9005F4806039
:10AE500010B90B9840420B9005F4006010B90C98A3
:10AE600040420C9005F4805010B90D9840420D906E
:10AE700005F4005010B90E9840420E9005F4804041
:10AE800010B90F9840420F9005F4004010B9109887
:10AE90004042109005F0010010B911984042119005
:10AEA00005F0020010B912984042129005F004001B
:10AEB00010B913984042139005F0080010B9149887
:10AEC0004042149012E0962009900A900B900020C6
:10AED0000C900D900E90FA200F9010904000119061
:10AEE000062012900F20139014201490002407E0E5
:10AEF00009A850F82400FE4941F82400601CC4B29F
:10AF0000032CF5DB002408E009A9E01C51F820001F
:10AF1000F84941F82400601CC4B2032CF4DB00247F
:10AF200008E009A9A01D51F82000F34941F82400C8
:10AF3000601CC4B2032CF4DB002405E00020EF49C0
:10AF400041F82400601CC4B2032CF7DB129804F013
:10AF5000D1FC81464FF07E5104F09AFBE84908602D
:10AF60000020E8490860E8490860E849086015B031
:10AF7000BDE8F0832DE9F04395B0E548006800286E
:10AF80007ED100241AE0E34800EB84073E6801A963
:10AF900001F82460C6F30720012101EB840101AA16
:10AFA0005054C6F30740022101EB84015054300E87
:10AFB000032101EB84015054601CC4B2072CE2DB76
:10AFC000B5B24FEA164844F6464080457ED100248B
:10AFD00039E001A810F8140000094FF47A714843D1
:10AFE00009A941F8240009A850F8240001A911F882
:10AFF000141001F00F0101EBC10202EB011100EB93
:10B00000810009A941F8240009A850F82400012171
:10B0100001EB440101AA515C090901EB810100EB3C
:10B02000410009A941F8240009A850F82400012191
:10B0300001EB4401515C01F00F01084409A941F8FA
:10B040002400601CC4B20C2CC3DB05F0F000D02837
:10B0500069D105F4807010B909984042099005F44F
:10B06000007010B90A9840420A9005F4806010B947
:10B070000B9840420B9005F4006020B90C9800E05A
:10B0800034E040420C9005F4805010B90D984042D5
:10B090000D9005F4005010B90E9840420E9005F442
:10B0A000804010B90F9840420F9005F4004010B94D
:10B0B00010984042109005F0010010B911984042DC
:10B0C000119005F0020020B9129800E02BE04042F8
:10B0D000129005F0040010B913984042139005F047
:10B0E000080000BB1498404214901CE040F2B630B7
:10B0F000099032200A9001200B904FF47A700C9046
:10B100004FF4CD600D9041F262600E904FF47A7072
:10B110000F90109024201190012012904FF4C860DD
:10B12000139001201490099804F0E4FB81467A49B9
:10B1300004F0AEFA794908600A9804F0DBFB814616
:10B14000754904F0A5FA764908600B9804F0D2FB23
:10B150008146714904F09CFA724908600C98401EBF
:10B16000714908600D9804F0C5FB81466F4904F0F1
:10B170008FFA6F4908600E9804F0BCFB81466B495A
:10B1800004F086FA6B4908600F9804F0B3FB81461F
:10B19000614904F07DFA68490860684910980860C0
:10B1A000674911980860129804F0A4FB81465A4937
:10B1B00004F06EFA63490860139804F09BFB814623
:10B1C000554904F065FA60490860149804F092FB50
:10B1D0008146514904F05CFA5C49086015B0BDE84D
:10B1E000F08310B5FDF7ECFD4948006818B958A088
:10B1F000FDF7F1FD06E046480068012802D15BA09A
:10B20000FDF7E9FDFDF701FEFFF7B4FEFFF72AFDAC
:10B21000FFF7CEFB10BD2DE9F04788B000BF082135
:10B22000594801F01CFB0028F9D1FFF79BF8D0200A
:10B23000FFF744F83B20FFF741F8FFF793F8D120E0
:10B24000FFF73CF804A8FEF7D2FFFEF782FF0024C8
:10B250000DE0012000EB440004A9085C11F8141073
:10B2600040EA012000B22DF81400601CC4B2072C83
:10B27000EFDBBDF900004549B1F90010451ABDF9F1
:10B2800002004349B1F90010461ABDF90470BDF936
:10B2900008004049B1F90010A0EB0108BDF90A000F
:10B2A0003D49B1F90010A0EB0109BDF90C003B4983
:10B2B000B1F90010A0EB010AFDF782FD38A0FDF7FF
:10B2C0008AFDFDF7A2FD3D4800F087FDFDF778FD02
:10B2D0003BA0FDF780FD4046FDF79FFDFDF795FD86
:10B2E000364800F07AFDFDF76BFD39A078E00000EC
:10B2F000A0010020AC010020B8010020C401002002
:10B30000380100203C0100204001002044010020C1
:10B31000F800002000F4030800007A44CC0000206C
:10B32000D0000020D4000020940100200000C8427A
:10B33000480000204C000020540000209400002011
:10B340009800002088000020800000208400002059
:10B350006C6F616420706172616D657465722066E6
:10B36000726F6D20666C6173682E00006C6F616493
:10B370002064656661756C7420706172616D6574BE
:10B380006572202E00000000000C0140C00000206B
:10B39000BE000020B2000020B4000020B600002053
:10B3A000626567696E20746F2073686F77206D70B7
:10B3B000753630353020646174612E00E0930400EE
:10B3C0006779726F2070697463683D202E000000F9
:10B3D0006779726F20726F6C6C3D202E0000000048
:10B3E000FDF7F9FC4846FDF718FDFDF70EFD224874
:10B3F00000F0F3FCFDF7E4FC20A0FDF7ECFC504668
:10B40000FDF70BFDFDF701FD1B4800F0E6FCFDF725
:10B41000D7FC1DA0FDF7DFFC2846FDF7FEFCFDF77D
:10B42000F4FC154800F0D9FCFDF7CAFC19A0FDF7A3
:10B43000D2FC3046FDF7F1FCFDF7E7FC0E4800F0CA
:10B44000CCFCFDF7BDFC17A0FDF7C5FC3846FDF7A9
:10B45000E4FCFDF7DAFC084800F0BFFCFDF7B0FCA7
:10B4600013A0FDF7B8FCFDF7D0FC034800F0B5FCD5
:10B4700008B0BDE8F0870000E09304006779726FC0
:10B48000207961773D202E0061636320726F6C6CC0
:10B490003D202E006163632070697463683D202E37
:10B4A00000000000616363207961773D202E000079
:10B4B00066696E69736820746F2073686F77206D9A
:10B4C00070753630353020646174612E00000000E4
:10B4D00000B585B0FE480068039004F023FAFD49EA
:10B4E000049004F0D5F8FC490860F94840680390DE
:10B4F00004F018FAF749049004F0CAF8F749086014
:10B50000F3488068039004F00DFAF249049004F0C7
:10B51000BFF8F3490860F3480068039004F002FAAA
:10B52000F149049004F0B4F8F0490860ED4840682F
:10B53000039004F0F7F9EC49049004F0A9F8EC4901
:10B540000860E8488068039004F0ECF9E64904904C
:10B5500004F09EF8E7490860E7480068039004F0AB
:10B56000E1F9E649049004F093F8E5490860E248FF
:10B570004068039004F0D6F9E049049004F088F89C
:10B58000E0490860DC488068039004F0CBF9DB49AF
:10B59000049004F07DF8DC490860DC480068DC4970
:10B5A0000860DA484068DB490860D8488068DA49B2
:10B5B0000860D7480068B0F57A7F05DDD448006898
:10B5C000C0F57A70D2490860D2480068B0F57A7F39
:10B5D00005DDD0480068C0F57A70CE490860CE48D5
:10B5E0000068B0F57A7F05DDCB480068C0F57A7059
:10B5F000C9490860C648006804F07CF9B549049060
:10B6000004F046F8C5490860C248006804F072F9C1
:10B61000B049049004F03CF8C1490860BE48006895
:10B6200004F068F9AB49049004F032F8BD490860B1
:10B63000BD48B0F9000004F05DF9A649049004F09B
:10B6400027F8BA490860BA48B0F9000004F052F986
:10B65000A049049004F01CF8B6490860B648B0F957
:10B66000000004F047F99B49049004F011F8B34935
:10B670000860B148B0F9000004F03CF90290B0480D
:10B680000168029804F096F90490A748B0F9000008
:10B6900004F030F90090AB480168009804F08AF992
:10B6A0000290A948B0F9000004F024F90090A748DE
:10B6B0000168009804F07EF90190029904F082FA82
:10B6C0000390049903F076FFA14908609A48B0F905
:10B6D000000004F00FF9029099480168029804F004
:10B6E00069F904909048B0F9000004F003F9009063
:10B6F00094480168009804F05DF902909248B0F90E
:10B70000000004F0F7F8009090480168009804F0F9
:10B7100051F90190029903F04DFF0390049903F051
:10B7200049FF8C4908608448B0F9000004F0E2F851
:10B73000029083480168029804F03CF904907C4828
:10B74000B0F9000004F0D6F8009083480168009832
:10B7500004F030F902907C48B0F9000004F0CAF817
:10B7600000907A480168009804F024F90190029949
:10B7700004F028FA0390049904F024FA7749086049
:10B780006D48B0F9000004F0B5F802906C4801680B
:10B79000029804F00FF904906548B0F9000004F035
:10B7A000A9F800906C480168009804F003F9029031
:10B7B0006548B0F9000004F09DF800906348016806
:10B7C000009804F0F7F80190029903F0F3FE03905B
:10B7D000049904F0F7F9624908605148016861482A
:10B7E000006804F0EFF9049050480168049804F0F0
:10B7F000E9F95D490860494801685C48006804F05F
:10B80000E1F904904B480168049804F0DBF95849C9
:10B810000860444801685748006804F0D3F9049070
:10B8200046480168049804F0CDF953490860084679
:10B8300001682B48006804F0BDF804904C4801688A
:10B840002548006804F0B6F802904748016823488C
:10B85000006804F0AFF800903D480168009803F0DC
:10B86000A9FE0190029904F0ADF90390049903F048
:10B87000A1FE37490860404801681948006804F093
:10B8800099F804903A4801681348006804F092F867
:10B890000290354801681148006804F08BF8009068
:10B8A0002E480168009804F082F90190029904F092
:10B8B00089F90390049904F085F9284908602E4815
:10B8C00001680748006804F075F80490284855E0BE
:10B8D000A00100200000204100010020FC00002009
:10B8E00004010020AC01002000401C460C01002097
:10B8F0000801002010010020B801002000007A4457
:10B9000018010020140100201C010020C4010020A7
:10B910002401002020010020280100203001002007
:10B920002C010020340100203E000020880100206E
:10B93000400000208C0100204200002090010020E7
:10B94000440100203C0100203C0000203801002080
:10B950007801002080010020400100207C010020AF
:10B96000840100207400002048010020780000209D
:10B970004C0100207C000020500100200168CE48CE
:10B98000006804F017F80290CC480168CC480068C1
:10B9900004F010F80090CB480168009804F007F913
:10B9A0000190029903F006FE0390049903F002FE51
:10B9B000C4490860C4480168C448006803F0FAFF3D
:10B9C0000490C3480168BC48006803F0F3FF02908C
:10B9D000BA480168BA48006803F0ECFF0090BD481F
:10B9E0000168009803F0E6FD0190029903F0E2FD82
:10B9F0000390049904F0E6F8B6490860AF4801687E
:10BA0000B548006803F0D6FDB3490860B048016846
:10BA1000B248006803F0CEFDB0490860AA4801684A
:10BA2000AF48006803F0C6FDAC490860AC48016847
:10BA3000AC48006803F0BEFF0490A8480168AA481B
:10BA4000006803F0B7FF0290A3480168A7480068A8
:10BA500003F0B0FF0090A6480168009803F0AAFD2B
:10BA60000190029904F0AEF80390049903F0A2FD4E
:10BA70009F4908609A4801689A48006803F09AFF55
:10BA80000490964801689848006803F093FF02907C
:10BA9000914801689548006803F08CFF0090954834
:10BAA0000168009804F083F80190029904F08AF884
:10BAB0000390049904F086F88E490860884801686C
:10BAC0008848006803F076FF04908448016886483F
:10BAD000006803F06FFF02907F48016883480068A8
:10BAE00003F068FF009077480168009804F05FF861
:10BAF0000190029903F05EFD0390049903F05AFD52
:10BB000070490860764801687648006803F052FF83
:10BB10000490724801687448006803F04BFF02907B
:10BB20006D4801687148006803F044FF009069485F
:10BB30000168009803F03EFD0190029903F03AFD80
:10BB40000390049904F03EF8624908606A4801686D
:10BB50005A48006804F036F8684908606848016887
:10BB60005B48006804F02EF8664908605648016892
:10BB70006548006804F026F8644908606448016874
:10BB80006448006803F016FF049063480168634846
:10BB9000006803F00FFF0290614801686148006887
:10BBA00003F008FF009052480168009803F002FD7E
:10BBB0000190029904F006F80390049903F0FAFC4E
:10BBC0004B490860524801685248006803F0F2FE91
:10BBD0000490514801685148006803F0EBFE029060
:10BBE0004F4801684F48006803F0E4FE0090414868
:10BBF0000168009803F0DBFF0190029903F0E2FF77
:10BC00000390049903F0DEFF3A4908604048016858
:10BC10004048006803F0CEFE04903F4801683F486A
:10BC2000006803F0C7FE02903D4801683D48006887
:10BC300003F0C0FE009023480168009803F0B7FFAE
:10BC40000190029903F0B6FC0390049903F0B2FC52
:10BC50001C4908602E4801682E48006803F0AAFEBF
:10BC600004902D4801682D48006803F0A3FE02905F
:10BC70002B4801682B48006803F09CFE0090154893
:10BC80000168009803F096FC0190029903F092FC81
:10BC90000390049903F096FF0E4908600748006876
:10BCA000154908600A480068154908600648006898
:10BCB0001549086005B000BD0001002048010020C2
:10BCC000FC00002080010020500100200401002021
:10BCD0004C010020840100206C0100207001002034
:10BCE00074010020100100200C0100200801002038
:10BCF000780100207C010020540100206001002018
:10BD000058010020640100205C010020680100202F
:10BD1000E80000201C010020E400002018010020A1
:10BD2000E00000201401002010B500F0ABFE01F08F
:10BD300095F84FF4803001F0B0F801F0EDF80446CA
:10BD4000012C24D1102000F081FC022000F068FCBE
:10BD5000002001F02AF9A00201F039F9A00201F057
:10BD60002DF94FF4E011200401F002F9012001F057
:10BD70000BF900BF392001F0B3F80028FAD00220F7
:10BD800001F005F900BF01F00BF90828FBD110BD47
:10BD900010B54FF40041080300F06CFF01211D2095
:10BDA00001F0CCF90121880301F0C8F90121480212
:10BDB00001F0C4F90121084601F0B3F90121C802DC
:10BDC00001F0BCF90121480301F0B8F901216C48E8
:10BDD00000F083FD00F0F3FE10BD00E0401E0028DF
:10BDE000FCD1704710B54FF48071664800F053FDE8
:10BDF00010BD10B54FF48071624800F04AFD10BDCF
:10BE000010B54FF40051604800F043FD10BD38B547
:10BE10004FF48070ADF8000010208DF8030003206F
:10BE20008DF802006946594800F086FC4FF4807195
:10BE3000564800F02EFD4FF48070ADF8000002204F
:10BE40008DF8020010208DF8030069464D4800F07F
:10BE500073FCFFF7C7FF4FF40050ADF8000002205D
:10BE60008DF8020010208DF803006946464800F066
:10BE700063FCFFF7C5FF00240BE0FFF7BAFF44485F
:10BE8000FFF7ABFFFFF7AEFF4148FFF7A6FF601CCF
:10BE9000C4B21E2CF1DB38BD08B54FF4C06000F011
:10BEA00032FE19208DF8000000208DF801000120DD
:10BEB0008DF802008DF80300684600F02AFE08BDE8
:10BEC0000EB50121C80201F039F90020ADF80600D5
:10BED0004720ADF800002F48008880B2ADF804007C
:10BEE0000020ADF802008DF8080069462A4801F0EC
:10BEF000F8F9FFF7D1FF0121274801F05AFF01228D
:10BF00001146254801F08EFC0121234801F06FFC09
:10BF10000EBD012021490860704710B54FF4005153
:10BF2000194800F0B8FC10BD10B51D480068B0F508
:10BF30007A7F02D900201A49086019480068B0F5D4
:10BF4000FA7F04D1FFF755FFFFF75AFF08E01448C6
:10BF50000068B0F57A7F03D1FFF744FFFFF7DDFFFC
:10BF60001048006814280AD900200E4908600E48BD
:10BF7000007820B10D48007808B1FCF79CFA10BD9C
:10BF8000000230000008014000100140000C014098
:10BF9000E093040094010020002C014004000020E4
:10BFA0001400002010000020440000204500002064
:10BFB00010B50446F748204430B1B0F5806F0DD07D
:10BFC000B0F5C05F1ED113E00121480201F0D0F8A6
:10BFD00000214FF4007001F0CBF814E00121880239
:10BFE00001F0C6F800214FF4806001F0C1F80AE0CA
:10BFF0000121C80301F0BCF800214FF4004001F01A
:10C00000B7F800E000BF00BF10BD30B50246002009
:10C0100000235068E04C20400D790C6844EA052468
:10C02000204350609068DD4C2040D1E902542C43FD
:10C030004D7944EA450420439060D06A20F47000B2
:10C040000C7C641E1C43E3B240EA0350D06230BD56
:10C0500000210160017141718160C16001210174A1
:10C06000704721B1826842F00102826003E0826879
:10C0700022F001028260704721B1826842F480722E
:10C08000826003E0826822F480728260704710B59B
:10C090000023CBB21AB144681C43446002E04468F8
:10C0A0009C43446010BD816841F008018160704785
:10C0B000014600208A6802F008020AB1012000E06F
:10C0C00000207047816841F004018160704701469B
:10C0D00000208A6802F004020AB1012000E000207A
:10C0E000704721B1826842F4A002826003E0826856
:10C0F00022F4A00282607047014600208A6802F4A0
:10C1000080020AB1012000E00020704710B50A4605
:10C1100000210023416821F46041531E41EA43316C
:10C12000416010BD21B1426842F40062426003E008
:10C13000426822F4006242607047F0B504460D4642
:10C1400000200021092D11DDE068A5F10A0606EBAB
:10C150004607072606FA07F18843A5F10A0606EB0B
:10C16000460603FA06F10843E0600CE0206905EB9F
:10C170004507072606FA07F1884305EB450603FA4B
:10C1800006F108432061072A0FDA606B561E06EBA2
:10C1900086071F2606FA07F18843561E06EB860619
:10C1A00005FA06F10843606322E00D2A0FDA206BDE
:10C1B000D61F06EB86071F2606FA07F18843D61F0F
:10C1C00006EB860605FA06F10843206310E0E06AF4
:10C1D000A2F10D0606EB86071F2606FA07F1884333
:10C1E000A2F10D0606EB860605FA06F10843E062A9
:10C1F000F0BD21B1826842F48012826003E082685F
:10C2000022F48012826070470146C86C80B2704789
:10C2100063480068704721B1426842F4806242601E
:10C2200003E0426822F480624260704721B14268B4
:10C2300042F48052426003E0426822F4805242603D
:10C2400070470A460021816821F4E0411143816072
:10C25000704721B1826842F40042826003E0826844
:10C2600022F400428260704721B1826842F40212D7
:10C27000826003E0826822F4021282607047014605
:10C2800000208A6802F400120AB1012000E00020B8
:10C290007047F0B504461546002000220026092903
:10C2A00011DDE068A1F10A0707EB470C072707FA41
:10C2B0000CF29043A1F10A0707EB470703FA07F2D4
:10C2C0001043E0600CE0206901EB410C072707FAFE
:10C2D0000CF2904301EB410703FA07F2104320618F
:10C2E000A06BC0F30156EF1C06F1010CA7EB0C0785
:10C2F00007EB870C1F2707FA0CF29043EF1C06F19F
:10C30000010CA7EB0C0707EB870701FA07F21043B4
:10C31000A063F0BD10B50A4600210023816B21F413
:10C320004011531E41EA0351816310BD42507047D2
:10C3300002465018806A80B270470A460021416860
:10C34000184B194011434160704741628262704747
:10C350000A460021416821F01F01114341607047E6
:10C3600040B10F494439096841F400010C4A443A8C
:10C37000116007E00A494439096821F40001084ABC
:10C38000443A116070470246002013680B405BB1CD
:10C3900001200AE000DCFEBFFFFEF0FFFDF7F1FF29
:10C3A0004C240140FFFD3FFF00207047CA4302605C
:10C3B000704770B502460020002300240B12556818
:10C3C000CEB205EA060415681D4015B10CB1012076
:10C3D00000E0002070BD00220A12D34303607047C2
:10C3E000016821F00101016000210160416081606C
:10C3F000C160874A811A90425BD012DC854AA0EB6B
:10C40000020190423AD007DC83490144D9B1142992
:10C4100022D028297AD128E0142938D0282975D1AA
:10C420003EE0B1F56C7F5BD006DCB1F5627F49D0B0
:10C43000B1F5677F6AD14CE0B1F5717F57D0B1F5A6
:10C44000767F63D15BE073494439496841F00F015D
:10C45000704A443A51605AE06E494439496841F0A3
:10C46000F0016C4A443A516051E06A4944394968E4
:10C4700041F47061674A443A516048E06549443983
:10C48000496841F47041634A443A51603FE0614970
:10C490004439496841F470215E4A443A516036E0BB
:10C4A0005C494439496841F470015A4A443A516040
:10C4B0002DE058494439496841F07061554A443A81
:10C4C000516024E05549096841F00F01534A116059
:10C4D0001DE05249096841F0F001504A116016E030
:10C4E0004E49096841F470614C4A11600FE04B49B4
:10C4F000096841F47041494A116008E006E0474983
:10C50000096841F47021454A116000E000BF00BF96
:10C51000704710B50022026847F6F0739A430C6A20
:10C520008B6823430C6923434C6923438C69234361
:10C53000CC6923434C6A23438C6A23431A43026029
:10C54000CB6843600B6883604B68C36010BD0021FB
:10C55000016041608160C160016141618161C161CF
:10C56000016241628162704721B1026842F00102BA
:10C57000026003E0026822F00102026070471AB113
:10C5800003680B43036002E003688B43036070475A
:10C590000146486880B2704701460020002201F041
:10C5A00080531BB11D4B1B1F1A6802E0194B443B03
:10C5B0001A6802EA01030BB1012000E00020704775
:10C5C00000F0805111B11549086002E01149443969
:10C5D0004860704701460020002201F080531BB1E3
:10C5E0000E4B1B1F1A6802E00A4B443B1A6802EA12
:10C5F00001030BB1012000E00020704700F08051E2
:10C6000011B10649086002E00249443948607047A8
:10C610008000024044000240F8FFFDBF04040240D5
:10C620001049096801F038010E4A11601146096885
:10C630000143116070470B49096821F00801094A5C
:10C640001160114609680143116070470549096886
:10C6500021F01001034A116011460968014311607D
:10C66000704700000020024010B50446C649601A19
:10C670008C422FD009DCC548204480B1B0F5806FD2
:10C6800016D0B0F5006F4AD11BE0B0F5806F2AD00C
:10C69000B0F5006F30D0B0F5406F40D135E00121EA
:10C6A000042000F065FD0021042000F061FD37E06A
:10C6B0000121082000F05CFD0021082000F058FD59
:10C6C0002EE00121102000F053FD0021102000F089
:10C6D0004FFD25E00121202000F04AFD002120200F
:10C6E00000F046FD1CE00121402000F041FD00214A
:10C6F000402000F03DFD13E00121802000F038FDD6
:10C700000021802000F034FD0AE00121080200F041
:10C710002FFD00214FF4807000F02AFD00E000BFE3
:10C7200000BF10BD10B50121084600F021FD002119
:10C73000012000F01DFD10BD2DE9F041024600254D
:10C740000026002000230024002791F803C00CF0ED
:10C750000F0591F803C00CF0100CBCF1000F03D0D2
:10C7600091F802C04CEA050591F800C0BCF1000F39
:10C7700031D0146800202BE04FF0010C0CFA00F3CC
:10C78000B1F800C00CEA03069E4220D183004FF0AE
:10C790000F0C0CFA03F7BC4305FA03FC4CEA040443
:10C7A00091F803C0BCF1280F06D14FF0010C0CFA30
:10C7B00000FCC2F814C00AE091F803C0BCF1480FB5
:10C7C00005D14FF0010C0CFA00FCC2F810C0401C5F
:10C7D0000828D1D31460B1F800C0BCF1FF0F34DDDC
:10C7E000546800202EE000F1080C4FF0010808FA10
:10C7F0000CF3B1F800C00CEA03069E4221D183007D
:10C800004FF00F0C0CFA03F7BC4305FA03FC4CEA9B
:10C81000040491F803C0BCF1280F05D100F1080C05
:10C8200008FA0CF8C2F8148091F803C0BCF1480F64
:10C8300007D100F1080C4FF0010808FA0CF8C2F813
:10C840001080401C0828CED35460BDE8F0814FF61C
:10C85000FF710180022181700421C170704702467E
:10C86000002093680B400BB1012000E000207047CE
:10C870000146886880B2704702460020D3680B40AA
:10C880000BB1012000E0002070470146C86880B26B
:10C89000704701617047416170470AB1016100E072
:10C8A00041617047C16070474FF480320A43826132
:10C8B0008161826182698269704702460020344B3F
:10C8C00018684FF68073184040EA02100843304B56
:10C8D000186070472F49C8617047F0B50A460023B9
:10C8E0000024002100252A4E7168C0F3034583B25D
:10C8F00000F44016B6F5401F08D121F07061244EB7
:10C90000766826F07066224F7E6012E000F4801692
:10C91000B6F5801F06D1032606FA05F4A14341F0BF
:10C92000706106E0460D360103FA06F6B14341F0A8
:10C93000706122B1460D360103FA06F63143144EFA
:10C940007160F0BD30B500228B071C0F0F2303FA76
:10C9500004F20F4B08338C1053F8243093430C4CE3
:10C9600008348D1044F8253023468C1053F82430B9
:10C970008C07240F00FA04F42343054C08348D106F
:10C9800044F8253030BD00000014014000F8FEBF1F
:10C99000000001400000204210B540F22551364809
:10C9A00001F080FB012806D1FBF73AFF40F2255148
:10C9B000314801F0A9FB10BD704700BFFEE700BF82
:10C9C000FEE700BFFEE700BFFEE770477047704715
:10C9D000704770477047704770477047704770479F
:10C9E000704770477047704770477047704770478F
:10C9F000704770477047704770477047704770477F
:10CA00007047704710B501211C4801F0C1F928B1E9
:10CA100001211A4801F0CDF9FFF77BFA10BD7047EC
:10CA2000704770477047704770477047704770474E
:10CA3000704770477047704770477047704770473E
:10CA400010B501210E4801F0A3F928B101210C48CD
:10CA500001F0AFF9FDF7E0FA10BD7047704770477D
:10CA6000704770477047704770477047704770470E
:10CA7000704770477047704700380140002C0140F4
:10CA8000003401400020411EED4A11600A09EC49C2
:10CA90008039C1F88420411E4FF0E022C2F8801294
:10CAA0000A09E8490A6000BF04E00022E64941F8AB
:10CAB0002020401C0F28F8D3704700204FF0206141
:10CAC000E24A11600021121D1160E149121D11603E
:10CAD0000021121D1160121D116000BF05E000222F
:10CAE000DA49143141F82020401C0328F7D30021F3
:10CAF000D64A20321160491E121D1160121D1160AC
:10CB0000121D11607047D2490143D04A08321160AA
:10CB10007047F0B500210022002300250F24C678BD
:10CB2000002E35D0C94E0836366806F4E066C6F5E4
:10CB3000E066310AC1F10405CC40467806FA05F1F9
:10CB400086782640314309010678B607F60EB140D3
:10CB5000BD4E0778BF1056F827200678B607F70EA7
:10CB6000FF2606FA07F39A4319400A43B64E0778A0
:10CB7000BF1046F82720067806F01F070126BE40A2
:10CB800007787F11BF0007F1E027C7F800610BE0CD
:10CB9000067806F01F070126BE40A94F90F800C096
:10CBA0004FEA6C1C47F82C60F0BD00210170417009
:10CBB0008170C170704710B501F0DDFA10BD10B57D
:10CBC00001F0D7FA10BD10B501F0DAFA10BD10B5BA
:10CBD00001F0D8FA10BD10B50446200101F0D7FAD3
:10CBE00010BD10B501F0D6FA10BD98480068C0F32A
:10CBF0000930704710B501460020002201F01F04E3
:10CC0000012303FA04F28E4B80334C1153F8243085
:10CC10001340934201D1012000E0002010BD8D4956
:10CC20000860704700F01F0201219140854A121FE1
:10CC3000431142F82310704784480068C0F309008C
:10CC4000704710B501460020002201F01F040123A7
:10CC500003FA04F27B4B7C334C1153F8243013401D
:10CC6000934201D1012000E0002010BD7748001F51
:10CC700000687047784A0A400243744B1B1D1A60D3
:10CC800070477348001D714908310860704770484B
:10CC9000401C6E4908310860704739B16B4A0C324C
:10CCA00012680243694B0C331A6006E0674A0C3283
:10CCB00012688243654B0C331A60704710B500222E
:10CCC00000F01F04012303FA04F239B15F4B203353
:10CCD0001B6813435D4C2034236006E05B4B20331C
:10CCE0001B689343594C2034236010BDF0B50346B4
:10CCF0000C4615460020FF2200260021534F08371E
:10CD00003F6807F4E067C7F5E067390AC1F104003E
:10CD1000CA4004FA00F105EA02073943090103F0A9
:10CD2000C0008009C3F30122D700B9404FEAC20C0A
:10CD3000FF2707FA0CF6454F143757F82070B74312
:10CD4000DFF808C10CF1140C4CF82070674657F856
:10CD500020700F434CF82070F0BD10B50246002043
:10CD600000230021910A01F00F01012404FA01F1CE
:10CD7000364C2034246804EA01038B4201D101209F
:10CD800000E0002010BD002100F01F012F4A1268B2
:10CD900001238B401A432D4B1A60704710B50021B8
:10CDA00000F01F01294A12684B1E01249C402243B7
:10CDB000264B1A6010BD10B502460020002300214A
:10CDC000C2F38331012404FA01F1204C2034246899
:10CDD00004EA01038B4201D1012000E0002010BDD4
:10CDE00030B50146002000220023C1F38142C1F387
:10CDF00001531AB9154C2834206811E0012A0CD1CE
:10CE0000124C24342468DD0024FA05F0022B02D0F1
:10CE100000F00F0004E0C0B202E00C4C2C3420689B
:10CE200030BD014600200022C1F380521AB9074BE1
:10CE30003033186802E0054B34331868704700003F
:10CE400080E100E084E200E000E400E004ED00E0C6
:10CE50000000FA0500EF00E080FFFF1FE0480068D7
:10CE600040F00100DE49086008464068DD4908409E
:10CE7000DB49486008460068DB490840D84908603B
:10CE80000846006820F4802008600846406820F4C6
:10CE9000FE004860002088607047D149096821F48D
:10CEA0008031CF4A11601146096821F48021116058
:10CEB000B0F5803F03D0B0F5802F0ED106E0C84911
:10CEC000096841F48031C64A116007E0C449096825
:10CED00041F4A021C24A116000E000BF00BF7047CA
:10CEE00010B501460022002300204A11012A02D178
:10CEF000BB4C236806E0022A02D1B94C236A01E048
:10CF0000B74C636A01F01F02012494401C400CB12D
:10CF1000012000E0002010BD10B5002400BF31202A
:10CF2000FFF7DEFFB1490870B1480068401CB04906
:10CF30000860AE48007828B90846006840F2FF1142
:10CF40008842ECD13120FFF7CBFF08B1012400E08B
:10CF50000024204610BD01460020A14A106820F0A0
:10CF6000F80040EAC10010607047A24908607047AD
:10CF7000024600209A4B586820F47C1042EA0103D4
:10CF80001843974B586070479A49086670470146A6
:10CF90000020934A506820F0030008435060704717
:10CFA0008F48406800F00C007047014600208C4A12
:10CFB000506820F0F00008435060704701460020A0
:10CFC000874A506820F4E06008435060704701468B
:10CFD0000020834A506820F4605040EAC10050604D
:10CFE000704729B17E4A527A02437D4B5A7204E05F
:10CFF0007B4A527A82437A4B5A7270477D49D831C4
:10D000000860704701460020754A506820F440408F
:10D010000843506070470021714A20321170704AF5
:10D0200082F82010012802D004280AD104E001214E
:10D030006B4A2032117005E00521694A20321170D7
:10D0400000E000BF00BF70476B490860704764494B
:10D05000096A0143624A11627047674944390860AE
:10D06000704730B500210022002400235C4D6D681C
:10D0700005F00C0121B1042905D0082923D105E0D0
:10D080005E4D056022E05D4D05601FE0544D6D680A
:10D0900005F47012022505EB9242514D6D6805F4BE
:10D0A00080341CB9564D554305600BE04C4D6D68FE
:10D0B00005F400351DB1524D5543056002E04F4D5A
:10D0C0005543056002E04D4D056000BF00BF444D73
:10D0D0006D6805F0F00109094A4D6B5C0568DD409B
:10D0E00045603F4D6D6805F4E061090A454D6B5C94
:10D0F0004568DD4085603A4D6D6805F46051C90AA8
:10D10000404D6B5C4568DD40C560354D6D6805F48C
:10D110004041890B3C4D6B5CC568B5FBF3F505617F
:10D1200030BD29B12E4A526902432D4B5A6104E0A9
:10D130002B4A526982432A4B5A61704729B1284AC7
:10D1400092690243264B9A6104E0254A9269824320
:10D15000234B9A61704729B1214AD2690243204B7F
:10D16000DA6104E01E4AD26982431D4BDA617047DE
:10D1700029B11B4AD2680243194BDA6004E0184A0D
:10D18000D2688243164BDA60704729B1144A12699B
:10D190000243134B1A6104E0114A12698243104B97
:10D1A0001A61704714494039086070471149C864D2
:10D1B00070470B49C87170470948406A40F0807059
:10D1C00007494862704701460020054A92680A40B4
:10D1D0000AB1012000E000207047014988727047C1
:10D1E000001002400000FFF8FFFFF6FE980100204B
:10D1F0009C010020000042428004424200127A005A
:10D2000000093D009EFD0008AEFD000810B5044673
:10D21000F749601A8C4245D00CDCB4F1804F1DD028
:10D22000F448204418B3B0F5806F29D0B0F5006FF2
:10D2300054D12EE0B0F5806F3DD0B0F58E3F03D0D5
:10D24000B0F5923F4AD13FE00121C802FFF790FFBD
:10D2500000214FF40060FFF78BFF40E001210846FA
:10D26000FFF793FF00210120FFF78FFF37E0012137
:10D270000220FFF78AFF00210220FFF786FF2EE041
:10D2800001210420FFF781FF00210420FFF77DFF2B
:10D2900025E001210820FFF778FF00210820FFF793
:10D2A00074FF1CE001211020FFF76FFF0021102008
:10D2B000FFF76BFF13E001212020FFF766FF00213D
:10D2C0002020FFF762FF0AE001214803FFF750FF2B
:10D2D00000214FF40050FFF74BFF00E000BF00BFFC
:10D2E00010BD028802F08F020280CA884B881A4360
:10D2F00003881A4302808A8882850A88028501226F
:10D300008282BD4A904202D0BC4A904201D10A7A40
:10D310000286704770B5002400220023058C4FF66A
:10D32000FE7635400584028C8388048B4FF68F751A
:10D330002C400D882C43751E2A400D892A434D88A8
:10D340002A43CD888586AC4DA84202D0AB4DA84279
:10D3500013D14FF6F7752A404D892A434FF6FB75D6
:10D360002A408D882A4347F6FF652B4047F6FF5534
:10D370002B408D892B43CD892B43838004830284EA
:10D3800070BD70B5002400220023058C4FF6EF76A7
:10D3900035400584028C8388048B48F6FF752C4049
:10D3A0000D884FF6FF7606EA05252C434FF6DF750C
:10D3B0002A400D8906EA05152A434D8806EA051517
:10D3C0002A43CD8805878C4DA84202D08B4DA842B8
:10D3D0001DD14FF67F752A404D894FF6FF7606EA3C
:10D3E00005152A434FF6BF752A408D8806EA0515B4
:10D3F0002A4347F6FF352B4047F2FF752B408D89B6
:10D4000006EA85052B43CD8906EA85052B438380F3
:10D410000483028470BD70B5002400220023058CB3
:10D420004FF6FF6635400584028C8388848B4FF667
:10D430008F752C400D882C434FF6FF552A400D89DF
:10D440004FF6FF7606EA05252A434D8806EA0525AC
:10D450002A43CD888587684DA84202D0674DA842EF
:10D460001DD14FF2FF752A404D894FF6FF7606EA2F
:10D4700005252A434FF6FF352A408D8806EA052503
:10D480002A4346F6FF752B4045F6FF752B408D89E4
:10D4900006EA05152B43CD8906EA05152B43838043
:10D4A0008483028470BD70B5002400220023058CA3
:10D4B0004EF6FF7635400584028C8388848B48F6CF
:10D4C000FF752C400D884FF6FF7606EA05252C43A4
:10D4D0004DF6FF752A400D8906EA05352A434D8829
:10D4E00006EA05352A43CD88A0F84050424DA842AF
:10D4F00002D0424DA84207D1C3F30D038D894FF6E8
:10D50000FF7606EA85152B4383808483028470BDF1
:10D51000828B4FF2FF331A408283828B4FF6FF7368
:10D5200003EA01231A4382837047F0B50C4615467F
:10D53000002100220026078C4EF6FF7C07EA0C072C
:10D540000784818B028C4FF6FF7707EA043640F69A
:10D55000FF4739404FF6FF7707EA05274FF6FF7C74
:10D560000CEA033C47EA0C0739434DF6FF773A4093
:10D5700046F480573A4381830284F0BD828B4FF694
:10D58000F3731A408283828B0A4382837047F0B51B
:10D590000C461546002100220026078C4FF6FF6C32
:10D5A00007EA0C070784818B028C4FF6FF7707EAA6
:10D5B00004264FF60C7739404FF6FF7707EA03173A
:10D5C0002F4339434FF6FF573A4046F480773A43AA
:10D5D00081830284F0BD028B4FF2FF331A40028335
:10D5E000028B4FF6FF7303EA01231A43028370474D
:10D5F0000010004000FCFFBF002C0140003401403F
:10D60000F0B50C461546002100220026078C4FF687
:10D61000EF7C07EA0C070784018B028C4FF6FF773B
:10D6200007EA041640F6FF4739404FF6FF7707EA4E
:10D63000033739434FF6FF7707EA052739434FF69B
:10D64000DF773A4046F010073A4301830284F0BD89
:10D65000028B4FF6F3731A400283028B0A43028354
:10D660007047F0B50C46154600210022068C4FF697
:10D67000FE773E400684018B028C4FF60C763140DB
:10D680007E1C06EA03162E4331437E1E324044F0D0
:10D690000106324301830284F0BD70B505460C4695
:10D6A000208850B92389A28861882846FFF7D9FFCE
:10D6B000E1882846FFF7CCFF25E0208804280AD11E
:10D6C0002389A28861882846FFF79AFFE1882846C7
:10D6D000FFF781FF17E0208808280AD12389A28854
:10D6E00061882846FFF753FFE1882846FFF746FF89
:10D6F00009E02389A28861882846FFF716FFE188A0
:10D700002846FFF705FF70BD2DE9F04105460C46A0
:10D7100000260127608808B9022600E00026A088BC
:10D72000012801D1022700E001272088A0B9238920
:10D73000A28861882846FFF794FFE1882846FFF712
:10D7400087FF23893A4631462846FFF759FFE1888B
:10D750002846FFF740FF13E02389A2886188284606
:10D76000FFF74EFFE1882846FFF735FF23893A4649
:10D7700031462846FFF775FFE1882846FFF768FF26
:10D78000BDE8F0810A884B881A438B881A43CB88FE
:10D790001A430B891A434B891A438B891A43A0F801
:10D7A000442070474FF6FF71818000210180C180C5
:10D7B0004180017270470021018041808180C180D9
:10D7C000018141818181C1817047002101804180B7
:10D7D000012181800021C1800181704700210180E9
:10D7E00041808180C180018141818181704721B167
:10D7F000028842F00102028004E0028840F2FE3317
:10D800001A400280704731B1B0F8442042F400421F
:10D81000A0F8442005E0B0F84420C2F30E02A0F8BE
:10D82000442070471AB183890B43838102E08389C6
:10D830008B43838170478182704741EA0203A0F8DD
:10D84000483070471AB183890B43838102E0838992
:10D850008B438381704701894FF6F8721140018133
:10D8600070470A46002101894FF68F731940114312
:10D870000181704730B504460D4629462046FFF722
:10D88000F0FF208940F00700208130BD2DE9F041F4
:10D8900004460D4616461F46602D06D13B46012222
:10D8A00031462046FFF7ACFE05E03B4601223146FB
:10D8B0002046FFF7D6FE29462046FFF7D2FF2089F3
:10D8C00040F007002081BDE8F08170B50C460021D2
:10D8D0000189C9B244EA02054FF6FF7606EA03263B
:10D8E00035432943018170BD2DE9F04105460E46BF
:10D8F00017469846002443463A4631462846FFF7E5
:10D90000E4FF2C894FF6F870044044F007044FF60A
:10D910008F70044044F070042C81BDE8F081F0B5B4
:10D9200004460D4616461F463B46324629462046CB
:10D93000FFF7CBFF208940F480402081F0BD0185B6
:10D94000828270470A460021018840F28F331940D5
:10D95000114301807047F0B50C4615461E46002164
:10D96000002200230189028B038C4FF6F87739409F
:10D9700021434FF6FC473A4040F201173A434FF635
:10D98000DD773B404FF6FF7707EA06172F433B430F
:10D99000018102830384F0BD0A460021018B4FF60A
:10D9A0008F7319401143018370470A460021018B90
:10D9B00048F6FF7319404FF6FF7303EA0223194339
:10D9C000018370470A460021818B4FF68F731940FF
:10D9D0001143818370470A460021818B48F6FF730B
:10D9E00019404FF6FF7303EA0223194381837047FE
:10D9F00021B1028842F08002028004E0028840F2F5
:10DA00007F331A400280704721B1828842F00402BD
:10DA1000828004E082884FF6FB731A408280704750
:10DA200021B1828842F00802828004E082884FF6A9
:10DA3000F7731A408280704721B1828842F0010258
:10DA4000828004E082884FF6FE731A40828070471D
:10DA50000A460021018B4FF6F773194011430183E9
:10DA600070470A460021018B4FF2FF7319404FF6B1
:10DA7000FF7303EA02231943018370470A4600211A
:10DA8000818B4FF6F77319401143818370470A4623
:10DA90000021818B4FF2FF7319404FF6FF7303EAA9
:10DAA00002231943818370470A460021018B4FF6F8
:10DAB000FB7319401143018370470A460021018B13
:10DAC0004FF6FF3319404FF6FF7303EA0223194361
:10DAD000018370470A460021818B4FF6FB73194082
